{
  "_format": "hh-sol-artifact-1",
  "contractName": "Split",
  "sourceName": "contracts/Split.sol",
  "abi": [
    {
      "inputs": [],
      "stateMutability": "payable",
      "type": "constructor"
    },
    {
      "inputs": [],
      "name": "owner",
      "outputs": [
        {
          "internalType": "address payable",
          "name": "",
          "type": "address"
        }
      ],
      "stateMutability": "view",
      "type": "function"
    },
    {
      "inputs": [
        {
          "internalType": "address payable",
          "name": "recipient",
          "type": "address"
        }
      ],
      "name": "transferEther",
      "outputs": [],
      "stateMutability": "payable",
      "type": "function"
    }
  ],
  "bytecode": "0x6080604052336000806101000a81548173ffffffffffffffffffffffffffffffffffffffff021916908373ffffffffffffffffffffffffffffffffffffffff1602179055506101d3806100536000396000f3fe6080604052600436106100295760003560e01c80636b55e9911461002e5780638da5cb5b1461004a575b600080fd5b61004860048036038101906100439190610146565b610075565b005b34801561005657600080fd5b5061005f6100bf565b60405161006c9190610182565b60405180910390f35b8073ffffffffffffffffffffffffffffffffffffffff166108fc349081150290604051600060405180830381858888f193505050501580156100bb573d6000803e3d6000fd5b5050565b60008054906101000a900473ffffffffffffffffffffffffffffffffffffffff1681565b600080fd5b600073ffffffffffffffffffffffffffffffffffffffff82169050919050565b6000610113826100e8565b9050919050565b61012381610108565b811461012e57600080fd5b50565b6000813590506101408161011a565b92915050565b60006020828403121561015c5761015b6100e3565b5b600061016a84828501610131565b91505092915050565b61017c81610108565b82525050565b60006020820190506101976000830184610173565b9291505056fea264697066735822122023ce6fbf1db4bee6cc449cd81305ca2a566aba55c1d97f28aa80c14301f615ca64736f6c63430008090033",
  "linkReferences": {},
  "deployedLinkReferences": {}
}